{
  "contractName": "Betting",
  "abi": [
    {
      "constant": true,
      "inputs": [],
      "name": "creator",
      "outputs": [
        {
          "name": "",
          "type": "address"
        }
      ],
      "payable": false,
      "stateMutability": "view",
      "type": "function"
    },
    {
      "constant": true,
      "inputs": [],
      "name": "endBlock",
      "outputs": [
        {
          "name": "",
          "type": "uint256"
        }
      ],
      "payable": false,
      "stateMutability": "view",
      "type": "function"
    },
    {
      "constant": true,
      "inputs": [
        {
          "name": "",
          "type": "uint256"
        }
      ],
      "name": "bettingPools",
      "outputs": [
        {
          "name": "id",
          "type": "uint256"
        },
        {
          "name": "name",
          "type": "bytes32"
        },
        {
          "name": "winner",
          "type": "bytes32"
        },
        {
          "name": "minBid",
          "type": "uint256"
        },
        {
          "name": "maxBid",
          "type": "uint256"
        }
      ],
      "payable": false,
      "stateMutability": "view",
      "type": "function"
    },
    {
      "constant": true,
      "inputs": [],
      "name": "status",
      "outputs": [
        {
          "name": "",
          "type": "uint8"
        }
      ],
      "payable": false,
      "stateMutability": "view",
      "type": "function"
    },
    {
      "constant": true,
      "inputs": [],
      "name": "arbitratorFee",
      "outputs": [
        {
          "name": "",
          "type": "uint256"
        }
      ],
      "payable": false,
      "stateMutability": "view",
      "type": "function"
    },
    {
      "constant": true,
      "inputs": [],
      "name": "arbitrator",
      "outputs": [
        {
          "name": "",
          "type": "address"
        }
      ],
      "payable": false,
      "stateMutability": "view",
      "type": "function"
    },
    {
      "constant": true,
      "inputs": [
        {
          "name": "",
          "type": "address"
        }
      ],
      "name": "pendingWithdrawals",
      "outputs": [
        {
          "name": "",
          "type": "uint256"
        }
      ],
      "payable": false,
      "stateMutability": "view",
      "type": "function"
    },
    {
      "inputs": [
        {
          "name": "_eventId",
          "type": "uint256"
        },
        {
          "name": "_eventName",
          "type": "bytes32"
        },
        {
          "name": "_fee",
          "type": "uint256"
        },
        {
          "name": "_endBlock",
          "type": "uint256"
        },
        {
          "name": "_arbitrator",
          "type": "address"
        }
      ],
      "payable": false,
      "stateMutability": "nonpayable",
      "type": "constructor"
    },
    {
      "anonymous": false,
      "inputs": [
        {
          "indexed": false,
          "name": "id",
          "type": "uint256"
        },
        {
          "indexed": false,
          "name": "creator",
          "type": "address"
        }
      ],
      "name": "poolCreated",
      "type": "event"
    },
    {
      "anonymous": false,
      "inputs": [
        {
          "indexed": false,
          "name": "value",
          "type": "uint256"
        },
        {
          "indexed": false,
          "name": "id",
          "type": "uint256"
        }
      ],
      "name": "betMade",
      "type": "event"
    },
    {
      "anonymous": false,
      "inputs": [
        {
          "indexed": false,
          "name": "status",
          "type": "uint256"
        }
      ],
      "name": "eventStatusChanged",
      "type": "event"
    },
    {
      "anonymous": false,
      "inputs": [
        {
          "indexed": false,
          "name": "amount",
          "type": "uint256"
        }
      ],
      "name": "withdrawalDone",
      "type": "event"
    },
    {
      "constant": false,
      "inputs": [
        {
          "name": "_name",
          "type": "bytes32"
        },
        {
          "name": "_names",
          "type": "bytes32[]"
        },
        {
          "name": "_minBid",
          "type": "uint256"
        },
        {
          "name": "_maxBid",
          "type": "uint256"
        }
      ],
      "name": "createPool",
      "outputs": [],
      "payable": false,
      "stateMutability": "nonpayable",
      "type": "function"
    },
    {
      "constant": false,
      "inputs": [
        {
          "name": "_pool",
          "type": "uint256"
        },
        {
          "name": "_bidName",
          "type": "bytes32"
        }
      ],
      "name": "makeBet",
      "outputs": [],
      "payable": true,
      "stateMutability": "payable",
      "type": "function"
    },
    {
      "constant": false,
      "inputs": [],
      "name": "finishEvent",
      "outputs": [],
      "payable": false,
      "stateMutability": "nonpayable",
      "type": "function"
    },
    {
      "constant": false,
      "inputs": [
        {
          "name": "_pool",
          "type": "uint256"
        },
        {
          "name": "_bidName",
          "type": "bytes32"
        }
      ],
      "name": "determineWinner",
      "outputs": [],
      "payable": false,
      "stateMutability": "nonpayable",
      "type": "function"
    },
    {
      "constant": false,
      "inputs": [],
      "name": "requestWithdraw",
      "outputs": [],
      "payable": false,
      "stateMutability": "nonpayable",
      "type": "function"
    },
    {
      "constant": true,
      "inputs": [
        {
          "name": "numerator",
          "type": "uint256"
        },
        {
          "name": "denominator",
          "type": "uint256"
        },
        {
          "name": "precision",
          "type": "uint256"
        }
      ],
      "name": "percent",
      "outputs": [
        {
          "name": "quotient",
          "type": "uint256"
        }
      ],
      "payable": false,
      "stateMutability": "pure",
      "type": "function"
    },
    {
      "constant": true,
      "inputs": [
        {
          "name": "_pool",
          "type": "uint256"
        }
      ],
      "name": "getBidsNum",
      "outputs": [
        {
          "name": "",
          "type": "uint256"
        }
      ],
      "payable": false,
      "stateMutability": "view",
      "type": "function"
    },
    {
      "constant": true,
      "inputs": [
        {
          "name": "_pool",
          "type": "uint256"
        },
        {
          "name": "_bid",
          "type": "uint256"
        }
      ],
      "name": "getBid",
      "outputs": [
        {
          "name": "",
          "type": "uint256"
        },
        {
          "name": "",
          "type": "bytes32"
        },
        {
          "name": "",
          "type": "uint256"
        }
      ],
      "payable": false,
      "stateMutability": "view",
      "type": "function"
    },
    {
      "constant": true,
      "inputs": [
        {
          "name": "_pool",
          "type": "uint256"
        }
      ],
      "name": "getBetsNums",
      "outputs": [
        {
          "name": "",
          "type": "uint256"
        }
      ],
      "payable": false,
      "stateMutability": "view",
      "type": "function"
    },
    {
      "constant": true,
      "inputs": [
        {
          "name": "_pool",
          "type": "uint256"
        },
        {
          "name": "_bid",
          "type": "uint256"
        }
      ],
      "name": "getWhoBet",
      "outputs": [
        {
          "name": "",
          "type": "address[]"
        }
      ],
      "payable": false,
      "stateMutability": "view",
      "type": "function"
    },
    {
      "constant": true,
      "inputs": [
        {
          "name": "_pool",
          "type": "uint256"
        },
        {
          "name": "_bet",
          "type": "uint256"
        }
      ],
      "name": "getBet",
      "outputs": [
        {
          "name": "",
          "type": "address"
        },
        {
          "name": "",
          "type": "bytes32"
        },
        {
          "name": "",
          "type": "uint256"
        }
      ],
      "payable": false,
      "stateMutability": "view",
      "type": "function"
    },
    {
      "constant": true,
      "inputs": [
        {
          "name": "_name",
          "type": "bytes32"
        }
      ],
      "name": "getPoolId",
      "outputs": [
        {
          "name": "",
          "type": "uint256"
        },
        {
          "name": "",
          "type": "bool"
        }
      ],
      "payable": false,
      "stateMutability": "view",
      "type": "function"
    },
    {
      "constant": true,
      "inputs": [],
      "name": "getPoolsNum",
      "outputs": [
        {
          "name": "",
          "type": "uint256"
        }
      ],
      "payable": false,
      "stateMutability": "view",
      "type": "function"
    }
  ],
  "bytecode": "0x608060405234801561001057600080fd5b5060405160a080611e69833981018060405260a081101561003057600080fd5b81019080805190602001909291908051906020019092919080519060200190929190805190602001909291908051906020019092919050505060648310151561007857600080fd5b8460008190555083600181905550826002819055508160048190555080600660006101000a81548173ffffffffffffffffffffffffffffffffffffffff021916908373ffffffffffffffffffffffffffffffffffffffff1602179055506000600360006101000a81548160ff021916908360028111156100f457fe5b021790555033600560006101000a81548173ffffffffffffffffffffffffffffffffffffffff021916908373ffffffffffffffffffffffffffffffffffffffff1602179055505050505050611d1b8061014e6000396000f3fe608060405260043610610111576000357c0100000000000000000000000000000000000000000000000000000000900463ffffffff1680622c1a9e1461011657806302d05d3f14610179578063083c6323146101d057806312959b89146101fb578063200d2ed2146102665780632301b83d1461029f5780633620c38d146103325780633ece0d31146103d657806351aecca414610425578063582c7ffd146104505780636539528c146104b75780636b08f54f146105065780636cc6cde1146105315780637e65b54314610588578063967364ad1461059f578063b3423eec146105d7578063db620f4f146105ee578063e18f7d7814610648578063f3f43703146106e2578063f4abf2dc14610747575b600080fd5b34801561012257600080fd5b506101636004803603606081101561013957600080fd5b8101908080359060200190929190803590602001909291908035906020019092919050505061078c565b6040518082815260200191505060405180910390f35b34801561018557600080fd5b5061018e6107c5565b604051808273ffffffffffffffffffffffffffffffffffffffff1673ffffffffffffffffffffffffffffffffffffffff16815260200191505060405180910390f35b3480156101dc57600080fd5b506101e56107eb565b6040518082815260200191505060405180910390f35b34801561020757600080fd5b506102346004803603602081101561021e57600080fd5b81019080803590602001909291905050506107f1565b604051808681526020018581526020018481526020018381526020018281526020019550505050505060405180910390f35b34801561027257600080fd5b5061027b610836565b6040518082600281111561028b57fe5b60ff16815260200191505060405180910390f35b3480156102ab57600080fd5b506102e2600480360360408110156102c257600080fd5b810190808035906020019092919080359060200190929190505050610849565b604051808473ffffffffffffffffffffffffffffffffffffffff1673ffffffffffffffffffffffffffffffffffffffff168152602001838152602001828152602001935050505060405180910390f35b34801561033e57600080fd5b506103d46004803603608081101561035557600080fd5b81019080803590602001909291908035906020019064010000000081111561037c57600080fd5b82018360208201111561038e57600080fd5b803590602001918460208302840111640100000000831117156103b057600080fd5b909192939192939080359060200190929190803590602001909291905050506108c9565b005b3480156103e257600080fd5b5061040f600480360360208110156103f957600080fd5b8101908080359060200190929190505050610b42565b6040518082815260200191505060405180910390f35b34801561043157600080fd5b5061043a610b6f565b6040518082815260200191505060405180910390f35b34801561045c57600080fd5b506104936004803603604081101561047357600080fd5b810190808035906020019092919080359060200190929190505050610b75565b60405180848152602001838152602001828152602001935050505060405180910390f35b3480156104c357600080fd5b506104f0600480360360208110156104da57600080fd5b8101908080359060200190929190505050610bd5565b6040518082815260200191505060405180910390f35b34801561051257600080fd5b5061051b610c02565b6040518082815260200191505060405180910390f35b34801561053d57600080fd5b50610546610c0f565b604051808273ffffffffffffffffffffffffffffffffffffffff1673ffffffffffffffffffffffffffffffffffffffff16815260200191505060405180910390f35b34801561059457600080fd5b5061059d610c35565b005b6105d5600480360360408110156105b557600080fd5b810190808035906020019092919080359060200190929190505050610d31565b005b3480156105e357600080fd5b506105ec61114b565b005b3480156105fa57600080fd5b506106276004803603602081101561061157600080fd5b8101908080359060200190929190505050611156565b60405180838152602001821515151581526020019250505060405180910390f35b34801561065457600080fd5b5061068b6004803603604081101561066b57600080fd5b8101908080359060200190929190803590602001909291905050506111d5565b6040518080602001828103825283818151815260200191508051906020019060200280838360005b838110156106ce5780820151818401526020810190506106b3565b505050509050019250505060405180910390f35b3480156106ee57600080fd5b506107316004803603602081101561070557600080fd5b81019080803573ffffffffffffffffffffffffffffffffffffffff1690602001909291905050506112a2565b6040518082815260200191505060405180910390f35b34801561075357600080fd5b5061078a6004803603604081101561076a57600080fd5b8101908080359060200190929190803590602001909291905050506112ba565b005b60008060018301600a0a850290506000600a600586848115156107ab57fe5b04018115156107b657fe5b04905080925050509392505050565b600560009054906101000a900473ffffffffffffffffffffffffffffffffffffffff1681565b60045481565b60078181548110151561080057fe5b90600052602060002090600702016000915090508060000154908060010154908060020154908060030154908060040154905085565b600360009054906101000a900460ff1681565b60008060008060078681548110151561085e57fe5b90600052602060002090600702016006018581548110151561087c57fe5b906000526020600020906003020190508060000160009054906101000a900473ffffffffffffffffffffffffffffffffffffffff1681600101548260020154935093509350509250925092565b600080600090505b6007805490508160ff16101561091e578660078260ff168154811015156108f457fe5b906000526020600020906007020160010154141561091157600191505b80806001019150506108d1565b508015151561092c57600080fd5b6000600780548091906001016109429190611ac7565b90508060078281548110151561095457fe5b9060005260206000209060070201600001819055508660078281548110151561097957fe5b9060005260206000209060070201600101819055508360078281548110151561099e57fe5b906000526020600020906007020160030181905550826007828154811015156109c357fe5b90600052602060002090600702016004018190555060008090505b868690508160ff161015610acd5760006007838154811015156109fd57fe5b90600052602060002090600702016005018054809190600101610a209190611af9565b905087878360ff168181101515610a3357fe5b90506020020135600784815481101515610a4957fe5b906000526020600020906007020160050182815481101515610a6757fe5b90600052602060002090600402016001018190555080600784815481101515610a8c57fe5b906000526020600020906007020160050182815481101515610aaa57fe5b9060005260206000209060040201600001819055505080806001019150506109de565b507fc334500aac4388383891836a45c5d1508ae08a122decad92b34b0b67f3d14a5d8133604051808381526020018273ffffffffffffffffffffffffffffffffffffffff1673ffffffffffffffffffffffffffffffffffffffff1681526020019250505060405180910390a150505050505050565b6000600782815481101515610b5357fe5b9060005260206000209060070201600601805490509050919050565b60025481565b600080600080600786815481101515610b8a57fe5b906000526020600020906007020160050185815481101515610ba857fe5b90600052602060002090600402019050806000015481600101548260030154935093509350509250925092565b6000600782815481101515610be657fe5b9060005260206000209060070201600501805490509050919050565b6000600780549050905090565b600660009054906101000a900473ffffffffffffffffffffffffffffffffffffffff1681565b60006002811115610c4257fe5b600360009054906101000a900460ff166002811115610c5d57fe5b148015610c6c57506000600454145b1515610c7757600080fd5b600660009054906101000a900473ffffffffffffffffffffffffffffffffffffffff1673ffffffffffffffffffffffffffffffffffffffff163373ffffffffffffffffffffffffffffffffffffffff16141515610cd357600080fd5b6001600360006101000a81548160ff02191690836002811115610cf257fe5b02179055507f3fcf8f8068f296a809a1ac04b4c62eded5bbddb0fdc29ec37d70e6a00defabf860016040518082815260200191505060405180910390a1565b60006002811115610d3e57fe5b600360009054906101000a900460ff166002811115610d5957fe5b141515610d6557600080fd5b600080600784815481101515610d7757fe5b90600052602060002090600702016005016000815481101515610d9657fe5b9060005260206000209060040201905060008090505b600785815481101515610dbb57fe5b9060005260206000209060070201600501805490508160ff161015610e755783600786815481101515610dea57fe5b90600052602060002090600702016005018260ff16815481101515610e0b57fe5b9060005260206000209060040201600101541415610e6857600785815481101515610e3257fe5b90600052602060002090600702016005018160ff16815481101515610e5357fe5b90600052602060002090600402019150600192505b8080600101915050610dac565b50811515610e8257600080fd5b60006004541115610e9e5743600454101515610e9d57600080fd5b5b6000600785815481101515610eaf57fe5b9060005260206000209060070201600301541115610ef657600784815481101515610ed657fe5b90600052602060002090600702016003015434111515610ef557600080fd5b5b6000600785815481101515610f0757fe5b9060005260206000209060070201600401541115610f4e57600784815481101515610f2e57fe5b90600052602060002090600702016004015434101515610f4d57600080fd5b5b806002013390806001815401808255809150509060018203906000526020600020016000909192909190916101000a81548173ffffffffffffffffffffffffffffffffffffffff021916908373ffffffffffffffffffffffffffffffffffffffff160217905550503481600301600082825401925050819055506000600785815481101515610fd957fe5b90600052602060002090600702016006018054809190600101610ffc9190611b2b565b90503360078681548110151561100e57fe5b90600052602060002090600702016006018281548110151561102c57fe5b906000526020600020906003020160000160006101000a81548173ffffffffffffffffffffffffffffffffffffffff021916908373ffffffffffffffffffffffffffffffffffffffff1602179055503460078681548110151561108b57fe5b9060005260206000209060070201600601828154811015156110a957fe5b90600052602060002090600302016002018190555081600101546007868154811015156110d257fe5b9060005260206000209060070201600601828154811015156110f057fe5b9060005260206000209060030201600101819055507f7ab34bd06200e7c082317f756f877d9cfc2824bcd0c76caf636a921fe9bd8cb43482604051808381526020018281526020019250505060405180910390a15050505050565b6111543361191e565b565b60008060008090505b6007805490508110156111ce578360078281548110151561117c57fe5b90600052602060002090600702016001015414156111c1576007818154811015156111a357fe5b906000526020600020906007020160000154600192509250506111d0565b808060010191505061115f565b505b915091565b60606007838154811015156111e657fe5b90600052602060002090600702016005018281548110151561120457fe5b906000526020600020906004020160020180548060200260200160405190810160405280929190818152602001828054801561129557602002820191906000526020600020905b8160009054906101000a900473ffffffffffffffffffffffffffffffffffffffff1673ffffffffffffffffffffffffffffffffffffffff168152602001906001019080831161124b575b5050505050905092915050565b60086020528060005260406000206000915090505481565b600160028111156112c757fe5b600360009054906101000a900460ff1660028111156112e257fe5b14806112ef575043600454105b1561191a573373ffffffffffffffffffffffffffffffffffffffff16600660009054906101000a900473ffffffffffffffffffffffffffffffffffffffff1673ffffffffffffffffffffffffffffffffffffffff161415611919576113548282611a29565b151561135f57600080fd5b600060078381548110151561137057fe5b90600052602060002090600702019050818160020181905550600080600080600090505b846005018054905081101561140757846002015485600501828154811015156113b957fe5b9060005260206000209060040201600101541415156113fa5784600501818154811015156113e357fe5b906000526020600020906004020160030154840193505b8080600101915050611394565b5060008090505b84600601805490508160ff16101561152e578460020154856006018260ff1681548110151561143957fe5b9060005260206000209060030201600101541415611518576000856006018260ff1681548110151561146757fe5b906000526020600020906003020160020154905080840193508060086000886006018560ff1681548110151561149957fe5b906000526020600020906003020160000160009054906101000a900473ffffffffffffffffffffffffffffffffffffffff1673ffffffffffffffffffffffffffffffffffffffff1673ffffffffffffffffffffffffffffffffffffffff1681526020019081526020016000206000828254019250508190555050611521565b81806001019250505b808060010191505061140e565b5060008211156116ff5760025460648481151561154757fe5b040260086000600660009054906101000a900473ffffffffffffffffffffffffffffffffffffffff1673ffffffffffffffffffffffffffffffffffffffff1673ffffffffffffffffffffffffffffffffffffffff168152602001908152602001600020600082825401925050819055506002546064848115156115c657fe5b04028303925060008090505b84600601805490508160ff1610156116f9578460020154856006018260ff168154811015156115fd57fe5b90600052602060002090600302016001015414156116ec576000611648866006018360ff1681548110151561162e57fe5b90600052602060002090600302016002015485600261078c565b90508060648681151561165757fe5b040260086000886006018560ff1681548110151561167157fe5b906000526020600020906003020160000160009054906101000a900473ffffffffffffffffffffffffffffffffffffffff1673ffffffffffffffffffffffffffffffffffffffff1673ffffffffffffffffffffffffffffffffffffffff16815260200190815260200160002060008282540192505081905550505b80806001019150506115d2565b506118b8565b60008090505b84600601805490508160ff1610156118b6576002546064866006018360ff1681548110151561173057fe5b90600052602060002090600302016002015481151561174b57fe5b0402856006018260ff1681548110151561176157fe5b9060005260206000209060030201600201540360086000876006018460ff1681548110151561178c57fe5b906000526020600020906003020160000160009054906101000a900473ffffffffffffffffffffffffffffffffffffffff1673ffffffffffffffffffffffffffffffffffffffff1673ffffffffffffffffffffffffffffffffffffffff168152602001908152602001600020600082825401925050819055506002546064866006018360ff1681548110151561181e57fe5b90600052602060002090600302016002015481151561183957fe5b040260086000600660009054906101000a900473ffffffffffffffffffffffffffffffffffffffff1673ffffffffffffffffffffffffffffffffffffffff1673ffffffffffffffffffffffffffffffffffffffff168152602001908152602001600020600082825401925050819055508080600101915050611705565b505b6002600360006101000a81548160ff021916908360028111156118d757fe5b02179055507f3fcf8f8068f296a809a1ac04b4c62eded5bbddb0fdc29ec37d70e6a00defabf860026040518082815260200191505060405180910390a1505050505b5b5050565b6000600860008373ffffffffffffffffffffffffffffffffffffffff1673ffffffffffffffffffffffffffffffffffffffff1681526020019081526020016000205490506000600860008473ffffffffffffffffffffffffffffffffffffffff1673ffffffffffffffffffffffffffffffffffffffff168152602001908152602001600020819055508173ffffffffffffffffffffffffffffffffffffffff166108fc829081150290604051600060405180830381858888f193505050501580156119ed573d6000803e3d6000fd5b507f9598756b267e966571913df494fd8c0f2079acf08d41f924142d58a809f8bfee816040518082815260200191505060405180910390a15050565b600080600090505b600784815481101515611a4057fe5b9060005260206000209060070201600501805490508160ff161015611abf5782600785815481101515611a6f57fe5b90600052602060002090600702016005018260ff16815481101515611a9057fe5b9060005260206000209060040201600101541415611ab2576001915050611ac1565b8080600101915050611a31565b505b92915050565b815481835581811115611af457600702816007028360005260206000209182019101611af39190611b5d565b5b505050565b815481835581811115611b2657600402816004028360005260206000209182019101611b259190611bc4565b5b505050565b815481835581811115611b5857600302816003028360005260206000209182019101611b579190611c0b565b5b505050565b611bc191905b80821115611bbd576000808201600090556001820160009055600282016000905560038201600090556004820160009055600582016000611ba49190611c61565b600682016000611bb49190611c85565b50600701611b63565b5090565b90565b611c0891905b80821115611c04576000808201600090556001820160009055600282016000611bf39190611ca9565b600382016000905550600401611bca565b5090565b90565b611c5e91905b80821115611c5a57600080820160006101000a81549073ffffffffffffffffffffffffffffffffffffffff02191690556001820160009055600282016000905550600301611c11565b5090565b90565b5080546000825560040290600052602060002090810190611c829190611bc4565b50565b5080546000825560030290600052602060002090810190611ca69190611c0b565b50565b5080546000825590600052602060002090810190611cc79190611cca565b50565b611cec91905b80821115611ce8576000816000905550600101611cd0565b5090565b9056fea165627a7a72305820315b08e03822a46643f0067069fc4098f4adcb8a6a9c03d743a90c72121a55cc0029",
  "source": "pragma solidity 0.5.0;\r\n\r\ncontract Betting {\r\n    \r\n    /* Types */\r\n    \r\n    enum eventStatus{ open, finished, closed }\r\n    \r\n    struct bid{\r\n        uint id;\r\n        bytes32 name;\r\n        address[] whoBet;\r\n        uint amountReceived;\r\n    }\r\n    \r\n    struct bettingPool{\r\n        uint256 id;\r\n        bytes32 name;\r\n        bytes32 winner;\r\n        uint256 minBid;\r\n        uint256 maxBid;\r\n        bid[] bids;\r\n        bet[] bets;\r\n    }\r\n    \r\n    struct bet{\r\n        address person;\r\n        bytes32 bidName;\r\n        uint amount;\r\n    }\r\n    \r\n    /* Storage */\r\n    uint256 eventId;\r\n    bytes32 eventName;\r\n    uint256 public arbitratorFee;\r\n    eventStatus public status;\r\n    uint256 public endBlock;\r\n    address public creator;\r\n    address public arbitrator;\r\n    bettingPool[] public bettingPools;\r\n    mapping (address => uint) public pendingWithdrawals;\r\n    \r\n    /* Events */\r\n    \r\n    event poolCreated(uint id, address creator);\r\n    event betMade(uint value, uint id);\r\n    event eventStatusChanged(uint status);\r\n    event withdrawalDone(uint amount);\r\n    \r\n    /* Modifiers */\r\n    modifier onlyFinished(){\r\n        if (status == eventStatus.finished || endBlock < block.number){\r\n            _;\r\n        }\r\n    }\r\n    modifier onlyArbitrator(){\r\n        if (arbitrator == msg.sender){\r\n            _;\r\n        }\r\n    }\r\n    /* Constructor */\r\n    constructor (uint256 _eventId, bytes32 _eventName, uint256 _fee, uint256 _endBlock, address _arbitrator) public {\r\n        require(_fee < 100);\r\n        eventId = _eventId;\r\n        eventName = _eventName;\r\n        arbitratorFee = _fee;\r\n        endBlock = _endBlock;\r\n        arbitrator = _arbitrator;\r\n        status = eventStatus.open;\r\n        creator = msg.sender;\r\n    }\r\n    \r\n    /* Methods */\r\n    \r\n    function createPool(bytes32 _name, bytes32[] calldata _names, uint256 _minBid, uint256 _maxBid) external{\r\n        \r\n        /* check whether pool with such name already exist */\r\n        bool found;\r\n        for (uint8 x = 0;x<bettingPools.length;x++){\r\n            if(bettingPools[x].name == _name){\r\n                found = true;\r\n            }\r\n        }\r\n        require(!found);\r\n        //\r\n        /* check names for duplicates */\r\n        //for (uint8 y=0;y<_names.length;y++){\r\n        //    require(_names[y] != _names[(y+1)]);\r\n        //}\r\n        \r\n        uint newId = bettingPools.length++;\r\n        bettingPools[newId].id = newId;\r\n        bettingPools[newId].name = _name;\r\n        bettingPools[newId].minBid = _minBid;\r\n        bettingPools[newId].maxBid = _maxBid;\r\n        \r\n        for (uint8 i = 0;i < _names.length; i++){\r\n            uint newBidId = bettingPools[newId].bids.length++;\r\n            bettingPools[newId].bids[newBidId].name = _names[i];\r\n            bettingPools[newId].bids[newBidId].id = newBidId;\r\n        }\r\n        \r\n        emit poolCreated(newId, msg.sender);\r\n    }\r\n    \r\n    function makeBet(uint _pool, bytes32 _bidName) payable external{\r\n        require(status == eventStatus.open);\r\n        /* check whether bid with given name actually exists */\r\n        bool found;\r\n        bid storage foundBid = bettingPools[_pool].bids[0];\r\n        for (uint8 i=0;i<bettingPools[_pool].bids.length;i++){\r\n            if (bettingPools[_pool].bids[i].name == _bidName){\r\n                foundBid = bettingPools[_pool].bids[i];\r\n                found = true;\r\n            }\r\n        }\r\n        require(found);\r\n        //check for block\r\n        if (endBlock > 0){\r\n        \trequire(endBlock < block.number);\r\n        }\r\n        //check for minimal amount\r\n        if (bettingPools[_pool].minBid > 0){\r\n        \trequire(msg.value > bettingPools[_pool].minBid);\r\n        }\r\n        //check for maximal amount\r\n        if (bettingPools[_pool].maxBid > 0){\r\n        \trequire(msg.value < bettingPools[_pool].maxBid);\r\n        }\r\n        foundBid.whoBet.push(msg.sender);\r\n        foundBid.amountReceived += msg.value;\r\n        uint newBetId =bettingPools[_pool].bets.length++;\r\n        bettingPools[_pool].bets[newBetId].person = msg.sender;\r\n        bettingPools[_pool].bets[newBetId].amount = msg.value;\r\n        bettingPools[_pool].bets[newBetId].bidName = foundBid.name;\r\n        \r\n        emit betMade(msg.value, newBetId);\r\n    }\r\n    \r\n    function finishEvent() external{\r\n        require(status == eventStatus.open && endBlock == 0);\r\n        require(msg.sender == arbitrator);\r\n        status = eventStatus.finished;\r\n        emit eventStatusChanged(1);\r\n    }\r\n    \r\n    function determineWinner(uint _pool, bytes32 _bidName) external onlyFinished() onlyArbitrator(){\r\n        require (findBid(_pool, _bidName));\r\n        bettingPool storage cPool = bettingPools[_pool];\r\n        cPool.winner = _bidName;\r\n        uint amountLost;\r\n        uint amountWon;\r\n        uint lostBetsLen;\r\n        /*Calculating amount of all lost bets */\r\n        for (uint x=0;x<cPool.bids.length;x++){\r\n            if (cPool.bids[x].name != cPool.winner){\r\n                amountLost += cPool.bids[x].amountReceived;\r\n            }\r\n        }\r\n        \r\n        /* Calculating amount of all won bets */\r\n        for (uint8 x=0;x<cPool.bets.length;x++){\r\n            if(cPool.bets[x].bidName == cPool.winner){\r\n                uint wonBetAmount = cPool.bets[x].amount;\r\n                amountWon += wonBetAmount;\r\n                pendingWithdrawals[cPool.bets[x].person] += wonBetAmount;\r\n            } else {\r\n                lostBetsLen++;\r\n            }\r\n        }\r\n        /* If we do have win bets */\r\n        if (amountWon > 0){\r\n            pendingWithdrawals[arbitrator] += amountLost/100*arbitratorFee;\r\n            amountLost = amountLost - (amountLost/100*arbitratorFee);\r\n            for (uint8 x=0;x<cPool.bets.length;x++){\r\n            if(cPool.bets[x].bidName == cPool.winner){\r\n                //uint wonBetPercentage = cEvent.bets[x].amount*100/amountWon;\r\n                uint wonBetPercentage = percent(cPool.bets[x].amount, amountWon, 2);\r\n                pendingWithdrawals[cPool.bets[x].person] += (amountLost/100)*wonBetPercentage;\r\n            }\r\n        }\r\n        } else {\r\n            /* If we dont have any bets won, we pay all the funds back except arbitrator fee */\r\n            for(uint8 x=0;x<cPool.bets.length;x++){\r\n                pendingWithdrawals[cPool.bets[x].person] += cPool.bets[x].amount-((cPool.bets[x].amount/100) * arbitratorFee);\r\n                pendingWithdrawals[arbitrator] += (cPool.bets[x].amount/100) * arbitratorFee;\r\n            }\r\n        }\r\n        status = eventStatus.closed;\r\n        emit eventStatusChanged(2);\r\n    }\r\n    \r\n    function withdraw(address payable person) private{\r\n        uint amount = pendingWithdrawals[person];\r\n        pendingWithdrawals[person] = 0;\r\n        person.transfer(amount);\r\n        emit withdrawalDone(amount);\r\n    }\r\n    \r\n    function requestWithdraw() external {\r\n        //require(pendingWithdrawals[msg.sender] != 0);\r\n        withdraw(msg.sender);\r\n    }\r\n    \r\n    function findBid(uint pool, bytes32 bidName) private view returns(bool){\r\n        for (uint8 i=0;i<bettingPools[pool].bids.length;i++){\r\n            if(bettingPools[pool].bids[i].name == bidName){\r\n                return true;\r\n            }\r\n        }\r\n    }\r\n    \r\n    function calc(uint one, uint two) private pure returns(uint){\r\n        return one/two;\r\n    }\r\n    function percent(uint numerator, uint denominator, uint precision) public \r\n\r\n    pure returns(uint quotient) {\r\n           // caution, check safe-to-multiply here\r\n          uint _numerator  = numerator * 10 ** (precision+1);\r\n          // with rounding of last digit\r\n          uint _quotient =  ((_numerator / denominator) + 5) / 10;\r\n          return ( _quotient);\r\n    }\r\n    /* Getters */\r\n    \r\n    function getBidsNum(uint _pool) external view returns (uint){\r\n        return bettingPools[_pool].bids.length;\r\n    }\r\n    \r\n    function getBid(uint _pool, uint _bid) external view returns (uint, bytes32, uint){\r\n        bid storage foundBid = bettingPools[_pool].bids[_bid];\r\n        return(foundBid.id, foundBid.name, foundBid.amountReceived);\r\n    }\r\n\r\n    function getBetsNums(uint _pool) external view returns (uint){\r\n        return bettingPools[_pool].bets.length;\r\n    }\r\n\r\n    function getWhoBet(uint _pool, uint _bid) external view returns (address[] memory){\r\n        return bettingPools[_pool].bids[_bid].whoBet;\r\n    }\r\n    \r\n    function getBet(uint _pool, uint _bet) external view returns(address, bytes32, uint){\r\n        bet storage foundBet = bettingPools[_pool].bets[_bet];\r\n        return (foundBet.person, foundBet.bidName, foundBet.amount);\r\n    }\r\n    \r\n    function getPoolId(bytes32 _name) external view returns (uint, bool){\r\n        for (uint i=0;i<bettingPools.length;i++){\r\n            if(bettingPools[i].name == _name){\r\n                return (bettingPools[i].id, true);\r\n            }\r\n        }\r\n    }\r\n    function getPoolsNum() external view returns(uint){\r\n        return bettingPools.length;\r\n    }\r\n}",
  "sourcePath": "C:\\OSPanel\\domains\\betpanel\\smart\\contracts\\betting.sol",
  "compiler": {
    "name": "solc",
    "version": "0.5.0+commit.1d4f565a.Emscripten.clang"
  },
  "schemaVersion": "2.0.1",
  "updatedAt": "2018-12-03T13:56:29.429Z"
}